:100000000C9414010C943C010C943C010C943C01A4
:100010000C943C010C943C010C943C010C943C016C
:100020000C943C010C943C010C943C010C943C015C
:100030000C943C010C943C010C943C010C943C014C
:100040000C9418050C943C010C9495060C94D8065D
:100050000C943C010C943C010C943C010C943C012C
:100060000C943C010C943C019003DC038503DC03FD
:10007000DC03DC038803DC03DC03DC03DC03DC03DC
:10008000DC03DC03DC03DC03C603A8035503BF0366
:100090003A0054696D653A2000206F66664D696EBE
:1000A0007574653A2000206F6666486F75723A2055
:1000B00000206F6E4D696E7574653A2000206F6E7A
:1000C000486F75723A2000416464696E67207469F4
:1000D0006D657220776974682069643A20007365E1
:1000E0006E64526573706F6E73653A2000436F6D76
:1000F0006D616E643A2000232323232323232323CB
:1001000023232323232323232323232300436C6933
:10011000656E7420646973636F6E6E656374656485
:100120002100436C69656E7420636F6E6E65637445
:100130006564210053657475702066696E69736823
:1001400065642100436163686520696E6974696153
:100150006C697A656421005365727665722061640A
:1001600064726573733A00536574757020696E69C3
:100170007469616C697A656421004C6F61642073F5
:10018000776974636865732066726F6D206D656D45
:100190006F72792E2E2E20444F4E4521002061642F
:1001A00064722E2E2E004C6F616465642E2E2E001C
:1001B00020616464722E2E2E0053617665642E2EAB
:1001C0002E000000000700020100000304060000EA
:1001D000000000000000010204081020408001021D
:1001E000040810200102040810200404040404047C
:1001F00004040202020202020303030303030000D9
:100200000000250028002B0000000000240027002B
:100210002A00FC0394074508690DFA0E97107B121B
:100220000316871CA921022211241FBECFEFD8E09C
:10023000DEBFCDBF12E0A0E0B1E0E4ECFFE402C01D
:1002400005900D92AC32B107D9F713E0ACE2B2E001
:1002500001C01D92AA39B107E1F712E0C8E2D2E06D
:1002600004C02297FE010E94DC27C231D107C9F7E2
:100270000E9454080C94C4260C940000CF92DF9284
:10028000EF92FF92CF93DF93EC010E94620528EE7C
:1002900033E040E050E00E948127C0902C02D090D3
:1002A0002D02E0902E02F0902F022C193D094E09EC
:1002B0005F092E3131054105510508F467C062E937
:1002C00070E083E992E00E94A70886E392E00E9432
:1002D00041174AE050E0682F83E992E00E944A0A01
:1002E00060E970E083E992E00E94A70886E392E06B
:1002F0000E944F174AE050E0682F83E992E00E9485
:10030000510A8A818F3F91F1FB8086E392E00E943F
:100310004117F81212C0FC8086E392E00E944F174A
:10032000F81224C0688170E020E030E040E08EE602
:1003300092E00E947914198219C0FD8086E392E050
:100340000E944117F81212C0FE8086E392E00E94DC
:100350004F17F8120BC0688170E020E030E040E0F9
:100360008EE692E00E942A1481E089830E94620551
:1003700028EE33E040E050E00E94812720932C02D9
:1003800030932D0240932E0250932F02DF91CF9194
:10039000FF90EF90DF90CF900895CF92DF92EF9291
:1003A000FF920F931F93CF93DF93EC016B01E12C2E
:1003B000F12CE881F9810488F589E02DCE010995B9
:1003C000882319F186010E0D1F1D7801EC18FD0818
:1003D000E881F9810480F581E02DCE010995892B12
:1003E00041F3E881F9810680F781E02DCE0109957E
:1003F0008A3029F4F601EE0DFF1D108206C0882315
:10040000C9F3F80181938F01E0CFDF91CF911F9164
:100410000F91FF90EF90DF90CF900895CF93DF93EF
:10042000EB010E943A096EED70E083E992E00E94D0
:10043000A708BE0183E992E0DF91CF910C943A09BD
:100440007F928F929F92AF92BF92CF92DF92EF9264
:10045000FF920F931F93CF93DF9300D000D0CDB7BF
:10046000DEB79C838B838DB69EB6AE014D5F5F4F2A
:1004700062E171E00E94D7260E94A626182FAE01E5
:100480004D5F5F4F62E171E08B819C810E94D726B6
:100490000E94A626F82EAE014D5F5F4F62E171E02B
:1004A0008B819C810E94D7260E94A626082FAE0130
:1004B0004D5F5F4F62E171E08B819C810E94D72686
:1004C0000E94A626E82EAE014D5F5F4F62E171E00B
:1004D0008B819C810E94D7260E94A626C82E67EC9D
:1004E00070E083E992E00E94A7084AE050E0612FA3
:1004F00083E992E00E94510A6DEB70E083E992E09B
:100500000E94A7084AE050E06F2D83E992E00E9424
:10051000510A61EB70E083E992E00E94A7084AE08B
:1005200050E0602F83E992E00E94510A66EA70E091
:1005300083E992E00E94A7084AE050E06E2D83E92B
:1005400092E00E94510A69E970E083E992E00E941A
:10055000A7084AE050E06C2D83E992E00E94510A1E
:10056000E0917602F0917702E381F0E031968DB769
:100570009EB78E1B9F0B0FB6F8949EBF0FBE8DBF0C
:1005800001965C01D12C8B819C81009739F1AE01E1
:100590004D5F5F4F62E171E00E94D7260E94A62660
:1005A00096EF980F913F78F7772473947D0CF501BF
:1005B000ED0DF11D808364E171E083E992E00E941A
:1005C0000109F501E70DF11D31974AE050E0608126
:1005D00083E992E00E94510AD72CD5CFF501ED0DA9
:1005E000F11D1082BA82A9822F2D412FBE016F5FAB
:1005F0007F4F80917602909177020E94151C81E0D6
:100600000FB6F8949EBE0FBE8DBE0F900F900F9048
:100610000F90DF91CF911F910F91FF90EF90DF909E
:10062000CF90BF90AF909F908F907F900895EF9262
:10063000FF920F931F93CF93DF93CDB7DEB72A9727
:100640000FB6F894DEBF0FBECDBF8C01CB017A8709
:100650006987AE01475F5F4F62E171E00E94D72674
:100660007C0167EF70E083E992E00E9428096DEE5B
:1006700070E083E992E00E94A708F701608183E9B6
:1006800092E00E945E09F7014081552747FD509591
:10069000652F752FFA01E154F109E431F10508F0F5
:1006A0008BC0EC5CFF4F0C94DA27AE01475F5F4FC5
:1006B00062E171E089859A850E94D7260E94A6266C
:1006C0007C01AE01475F5F4F62E171E089859A85E9
:1006D0000E94D7260E94A626B701772720E030E0A7
:1006E00040E0813031F48EE692E00E942A1441E02D
:1006F00005C08EE692E00E94791440E06E2D809154
:100700007602909177020E94EA1B6EE171E059C077
:10071000B80180917602909177020E9490195FC093
:10072000AE01475F5F4F62E171E089859A850E9463
:10073000D7260E94A6269FEF980F9E3F08F03FC045
:10074000682F80917602909177020E94B41A1BC0A4
:10075000AE01475F5F4F62E171E089859A850E9433
:10076000D7260E94A6269FEF980F9E3F40F5682F40
:1007700080917602909177020E94BB1804C089850F
:100780009A850E9420028823D1F0BFCFAE01475F37
:100790005F4F62E171E089859A850E94D7260E94A9
:1007A000A6268887BE01685F7F4F80917602909170
:1007B00077020E947A1CA9CF61E271E002C06DE16C
:1007C00071E0CE0101960E94EC0ABE016F5F7F4F7F
:1007D000C8010E940E02CE0101960E947E0A2A964E
:1007E0000FB6F894DEBF0FBECDBFDF91CF911F9142
:1007F0000F91FF90EF9008950F9300E020E040E00C
:1008000060E084E892E00E942E0807E921E048EACF
:1008100060EC8EE792E00E942E0868EB72E288E7B7
:1008200092E00E94620F6AE070E08EE692E00E9421
:10083000861286E392E00E94C71405E624E043EAAC
:1008400064E880E392E00E942E080F9108950F93D0
:100850001F93CF93DF9300D000D000D0CDB7DEB789
:1008600067E671E083E992E00E94280940E855E2DA
:1008700060E070E083E992E00E9413070BE411E06E
:100880001A8309838091800290918102A091820253
:10089000B09183028B839C83AD83BE83AE014F5F97
:1008A0005F4F6AE071E089E493E00E949A0E88E766
:1008B00092E00E941E0F67E571E083E992E00E94DA
:1008C000A70869E473E0CE0101960E94D80EBE012C
:1008D0006F5F7F4F83E992E00E94700961E070E0F2
:1008E0008EE692E00E94961264E071E08EE692E05D
:1008F0000E94A11266E070E08EE692E00E94A512CE
:100900001A8309838091320290913302A0913402BC
:10091000B09135028B839C83AD83BE8348EB52E25A
:10092000BE016F5F7F4F86E392E00E94E0166CE2AB
:1009300071E086E392E00E94E11461E086E392E0D8
:100940000E94DE1484E090E00E9461088C0166E45D
:100950000E94E31B109377020093760264E471E037
:1009600083E992E00E94280964E371E083E992E060
:100970000E94280926960FB6F894DEBF0FBECDBFA1
:10098000DF91CF911F910F910895CF93DF93CDB752
:10099000DEB7CD55D1090FB6F894DEBF0FBECDBF7F
:1009A00068E772E0CE018F5A9F4F0E9426106EE3D7
:1009B00071E080917602909177020E940419CE0135
:1009C0008F5A9F4F0E94AD0B811107C064E670E003
:1009D00080E090E00E94910521C062E271E083E92D
:1009E00092E00E942809BE016F5F7F4FCE018F5AAF
:1009F0009F4F0E94CD01BE016F5F7F4FCE018F5A86
:100A00009F4F0E941703CE018F5A9F4F0E94040DE3
:100A10006DE071E083E992E00E942809C35ADF4F3C
:100A20000FB6F894DEBF0FBECDBFDF91CF91089512
:100A30001F920F920FB60F9211242F933F938F9313
:100A40009F93AF93BF9380918B0290918C02A09162
:100A50008D02B0918E0230918A0223E0230F2D3750
:100A600020F40196A11DB11D05C026E8230F0296B2
:100A7000A11DB11D20938A0280938B0290938C025A
:100A8000A0938D02B0938E0280918F02909190027C
:100A9000A0919102B09192020196A11DB11D809387
:100AA0008F0290939002A0939102B0939202BF9113
:100AB000AF919F918F913F912F910F900FBE0F900B
:100AC0001F9018952FB7F89460918B0270918C024B
:100AD00080918D0290918E022FBF08953FB7F894B8
:100AE00080918F0290919002A0919102B091920218
:100AF00026B5A89B05C02F3F19F00196A11DB11D79
:100B00003FBF6627782F892F9A2F620F711D811D95
:100B1000911D42E0660F771F881F991F4A95D1F7F4
:100B20000895CF92DF92EF92FF92CF93DF936B0104
:100B30007C010E946E05EB01C114D104E104F104B3
:100B400079F00E946E056C1B7D0B683E7340A0F32C
:100B500081E0C81AD108E108F108C851DC4FECCF98
:100B6000DF91CF91FF90EF90DF90CF9008950197A4
:100B7000009739F0880F991F880F991F02970197E6
:100B8000F1F70895789484B5826084BD84B581605E
:100B900084BD85B5826085BD85B5816085BDEEE685
:100BA000F0E0808181608083E1E8F0E01082808164
:100BB00082608083808181608083E0E8F0E08081D2
:100BC00081608083E1EBF0E0808184608083E0EBF2
:100BD000F0E0808181608083EAE7F0E080818460DA
:100BE0008083808182608083808181608083808136
:100BF000806880831092C1000895FC0124853585AA
:100C0000F901E05CFF4F80819181F901EE5BFF4FBC
:100C100020813181821B930B8F7399270895FC01EA
:100C200084859585FC01E05CFF4F40815181FC018A
:100C3000EE5BFF4F208131814217530741F0019055
:100C4000F081E02DE80FF91F808190E008958FEF8B
:100C50009FEF0895FC0184859585FC01E05CFF4FC2
:100C600040815181FC01EE5BFF4F208131814217B1
:100C7000530779F0A081B181A80FB91F8C91208111
:100C800031812F5F3F4F2F7333273183208390E0D3
:100C900008958FEF9FEF0895FC0181A1882329F02B
:100CA000A489B5898C9186FFFBCF11A20895CF93BB
:100CB000DF93FC0126853785D901A05CBF4F8D915C
:100CC0009C91119701968F739927E901CE5BDF4FB5
:100CD0004881598184179507D9F30D90BC91A02DB7
:100CE000A20FB31F6C93A685B785A05CBF4F11966A
:100CF0009C938E93A689B7892C9181E090E0078C14
:100D000002C0880F991F0A94E2F7282B2C9381E0E8
:100D100081A30488F589E02D80818064808381E04F
:100D200090E0DF91CF91089508951F920F920FB632
:100D30000F9211242F933F934F938F939F93EF9391
:100D4000FF938091C00082FD1CC04091C60080913D
:100D5000390390913A0301968F73992720913B03B1
:100D600030913C038217930771F0E0913903F091C1
:100D70003A03E750FD4F408390933A038093390341
:100D800002C08091C600FF91EF919F918F914F918A
:100D90003F912F910F900FBE0F901F90189583E9F0
:100DA00092E00E94FD05892B11F00C9494060895A1
:100DB0001F920F920FB60F9211242F933F938F9390
:100DC0009F93EF93FF932091F5023091F60280916B
:100DD000F7029091F8022817390731F48091C10089
:100DE0008F7D8093C10014C0E091F702F091F8026A
:100DF000EB54FD4F20818091F7029091F80201960B
:100E00008F7399279093F8028093F7022093C6007E
:100E1000FF91EF919F918F913F912F910F900FBE76
:100E20000F901F901895CF92DF92EF92FF92CF9381
:100E3000DF93EC016A017B01411581EE58076105E2
:100E40007105F9F0EC89FD8981E090E008A002C00D
:100E5000880F991F0A94E2F7808360E079E08DE3C0
:100E600090E0A70196010E94812721503109410994
:100E700051095695479537952795211580E13807F3
:100E800098F0EC89FD89108260E874E88EE190E0CA
:100E9000A70196010E94812721503109410951097A
:100EA0005695479537952795E889F9893083EA89DA
:100EB000FB89208319A2EE89FF89408181E090E0BF
:100EC0009C010C8C02C0220F331F0A94E2F7422BC4
:100ED0004083EE89FF8940819C010D8C02C0220F66
:100EE000331F0A94E2F7422B4083EE89FF89408149
:100EF0009C010E8C02C0220F331F0A94E2F7422B92
:100F00004083EE89FF8920810F8C02C0880F991FD2
:100F10000A94E2F7809582238083DF91CF91FF903E
:100F2000EF90DF90CF900895109296021092950264
:100F300088EE93E0A0E0B0E080939702909398024F
:100F4000A0939902B0939A028BE391E0909394025C
:100F50008093930289EF92E09093A00280939F0286
:100F600085EB92E09093A2028093A10285EC90E041
:100F70009093A4028093A30284EC90E09093A60245
:100F80008093A50280EC90E09093A8028093A70242
:100F900081EC90E09093AA028093A90282EC90E009
:100FA0009093AC028093AB0286EC90E09093AE02FB
:100FB0008093AD0284E08093AF0283E08093B0021F
:100FC00087E08093B10285E08093B20281E0809354
:100FD000B3020895AF92BF92CF92DF92EF92FF9249
:100FE0000F931F93CF93DF936C017B01C0E0D0E0A0
:100FF00000E010E0F601EC0FFD1F4AE050E06281D6
:10100000C7010E944A0A5C016EE2C7010E940309FF
:101010008A0D9B1D080F191F2196C330D10551F76A
:101020004AE050E0F6016581C7010E944A0A800F3C
:10103000911FDF91CF911F910F91FF90EF90DF9063
:10104000CF90BF90AF9008952BE431E0FC01318345
:101050002083128213821482158208950F93FC015B
:101060008BE491E0918380836283438324830583AF
:101070000F910895FB014081518162817381FC01D0
:10108000428353836483758308958BE491E0909346
:101090003E0380933D0310923F0310924003109251
:1010A00041031092420308950E94C2050E94270442
:1010B000CFECD6E00E94C5042097E1F30E94CF0652
:1010C000F9CF0C94B5240C94B5240C944D250C94B4
:1010D0004D25CF92DF92EF92FF920F931F93CF9304
:1010E000DF936C017A01EB01E60EF71E00E010E0E1
:1010F000CE15DF0561F06991D601ED91FC9101906B
:10110000F081E02DC6010995080F191FF1CFC80124
:10111000DF91CF911F910F91FF90EF90DF90CF90D3
:1011200008956115710581F0DB010D900020E9F74C
:10113000AD0141505109461B570BDC01ED91FC916B
:101140000280F381E02D099480E090E00895EF9211
:10115000FF920F931F93CF93DF938C01FB01C0E0AD
:10116000D0E064917F018FEFE81AF80A662361F0FE
:10117000D801ED91FC910190F081E02DC801099515
:10118000C80FD91FF701EDCFCE01DF91CF911F918D
:101190000F91FF90EF900895AF92BF92CF92DF92A0
:1011A000EF92FF920F931F93CF93DF937C016B011C
:1011B000C0E0D0E000E010E0D60114968D919C9143
:1011C0001597C817D90788F4D701ED91FC91A08035
:1011D000B180BE01C6010E946F0B682FC701F501E7
:1011E0000995080F191F2196E7CFC801DF91CF910C
:1011F0001F910F91FF90EF90DF90CF90BF90AF9035
:1012000008950C949108DC01ED91FC910190F0811E
:10121000E02D0994DB01ED91FC9111970190F08193
:10122000E02DBC01CD0109940F931F93CF93DF9361
:10123000EC016DE00E9403098C016AE0CE010E947E
:101240000309800F911FDF91CF911F910F91089596
:101250000F931F93CF93DF93EC010E94A7088C019B
:10126000CE010E941409800F911FDF91CF911F9131
:101270000F9108950F931F93CF93DF93EC010E947A
:10128000CC088C01CE010E941409800F911FDF91C0
:10129000CF911F910F9108950F931F93CF93DF93D9
:1012A000EC010E9491088C01CE010E941409800F6C
:1012B000911FDF91CF911F910F9108950F931F936D
:1012C000CF93DF93EC010E9403098C01CE010E94B1
:1012D0001409800F911FDF91CF911F910F910895F5
:1012E0000F931F93CF93DF93EC010E940A098C01A7
:1012F000CE010E941409800F911FDF91CF911F91A1
:101300000F9108958F929F92AF92BF92CF92DF92EA
:10131000EF92FF920F931F93CF93DF93CDB7DEB77A
:10132000A1970FB6F894DEBF0FBECDBF7C01C42ECF
:10133000E52FCB01D22E19A221E02D1510F02AE0C5
:10134000D22E8E010F5D1F4F8D2C912CA12CB12C14
:101350006C2D7E2FA50194010E9481278C2DD29E99
:1013600080191124015011098A3014F4805D01C0E4
:10137000895CF8018083211531054105510521F073
:10138000C22EE32FCA01E4CFB801C7010E94910821
:10139000A1960FB6F894DEBF0FBECDBFDF91CF91FF
:1013A0001F910F91FF90EF90DF90CF90BF90AF9083
:1013B0009F908F900895CF92DF92EF92FF920F93BC
:1013C0001F93CF93DF93EC016A017B012115310557
:1013D00079F4E881F9810190F081E02D642FDF91AB
:1013E000CF911F910F91FF90EF90DF90CF900994D4
:1013F0002A303105E9F477FF1AC06DE20E94030933
:101400008C0144275527BA014C195D096E097F09E3
:101410002AE0CE010E948209800F911FDF91CF91B7
:101420001F910F91FF90EF90DF90CF9008952AE0E9
:10143000B701A601CE01DF91CF911F910F91FF90CF
:10144000EF90DF90CF900C9482090F931F93CF936E
:10145000DF93EC019A01AB01662757FD6095762F6B
:101460000E94DB098C01CE010E941409800F911F9C
:10147000DF91CF911F910F9108952115310541F40E
:10148000DC01ED91FC910190F081E02D642F099435
:101490000C9482099A01462F50E060E070E00C94B1
:1014A0003D0A0F931F93CF93DF93EC019A01462FD0
:1014B00050E060E070E00E943D0A8C01CE010E9485
:1014C0001409800F911FDF91CF911F910F91089503
:1014D0000F931F93CF93DF93EC019A01AB0160E070
:1014E00070E00E943D0A8C01CE010E941409800F19
:1014F000911FDF91CF911F910F910895FC01808181
:1015000091810C944D25CF93DF93EC0188819981D3
:10151000009711F00E944D25198218821D821C82AD
:101520001B821A82DF91CF9108950F931F93CF935F
:10153000DF93EC018B016F5F7F4F888199810E945F
:10154000DC25009731F0998388831B830A8381E02F
:1015500001C080E0DF91CF911F910F910895CF934B
:10156000DF93EC0188819981892B29F08A819B8105
:101570008617970760F4CE010E94950A882341F0F0
:101580008C819D81892B19F4E881F981108281E099
:10159000DF91CF910895EF92FF920F931F93CF9316
:1015A000DF93EC017B018A01BA010E94AF0A81112D
:1015B00004C0CE010E94830A07C01D830C83B701BB
:1015C000888199810E94D026CE01DF91CF911F9111
:1015D0000F91FF90EF900895FC0111821082138209
:1015E00012821582148216826115710559F0FB0171
:1015F00001900020E9F7AF0141505109461B570BFC
:101600000C94CB0A0895EF92FF920F931F93CF9300
:10161000DF93EC017B010C811D816115710511F4D3
:1016200080E016C04115510591F0040F151FB80157
:101630000E94AF0A8823A1F3288139818C819D8182
:10164000B701820F931F0E94D0261D830C8381E077
:10165000DF91CF911F910F91FF90EF900895CF935D
:10166000DF9300D0CDB7DEB769831A8241E050E046
:10167000BE016F5F7F4F0E94030B0F900F90DF91B1
:10168000CF910895EF92FF920F931F93CF93DF9323
:1016900000D000D0CDB7DEB77C01862F4AE050E005
:1016A0008E010F5F1F4FB80190E00E94FE26F801E7
:1016B00001900020E9F7AF0141505109401B510B47
:1016C000B801C7010E94030B0F900F900F900F906D
:1016D000DF91CF911F910F91FF90EF900895FC0142
:1016E000248135816217730748F4808191810097C6
:1016F00029F0FC01E60FF71F8081089580E008952E
:10170000CF93DF931F92CDB7DEB76983DC01ED91F4
:10171000FC910280F381E02D41E050E0BE016F5F5B
:101720007F4F09950F90DF91CF910895CF93DF936D
:10173000EC01E881F9810480F581E02DCE01099565
:10174000892B41F0E881F9810680F781E02DCE01F7
:101750000995EFCFDF91CF91089521E0FC018485B9
:10176000843009F420E0822F08950F931F93CF93C4
:10177000DF93EC018A018C85843021F00E947B1D6F
:10178000892B39F481E090E09B838A8380E090E0AC
:1017900001C0C801DF91CF911F910F910895FC0105
:1017A0006485643021F089E793E00C94991F80E010
:1017B00090E00895CF93DF931F92CDB7DEB741E05D
:1017C00050E0BE016F5F7F4FFC0184850E94CD1DFC
:1017D000181619061CF4898190E002C08FEF9FEF64
:1017E0000F90DF91CF910895FC0184850C94CD1D5D
:1017F0000F931F93CF93DF931F92CDB7DEB78C016A
:10180000DC01ED91FC910480F581E02D0995892B97
:1018100051F0BE016F5F7F4FF80184850E94111E59
:10182000898190E002C08FEF9FEF0F90DF91CF9101
:101830001F910F910895CF92DF92EF92FF920F9335
:101840001F93CF93DF93CDB7DEB7AF970FB6F89462
:10185000DEBF0FBECDBF7C018B016A01CE010196B8
:101860000E942408CE0109960E940812CE018A9691
:101870000E94240869E473E0CE0184960E94EA0E77
:10188000BE016C5D7F4FCE0101960E94B421AE0176
:10189000465D5F4FB801CE0101960E941924813048
:1018A0009105C1F4D701ED91FC910484F585E02DFB
:1018B0008BE491E09DA38CA30CA51DA52EA53FA5AF
:1018C0000EA31FA328A739A7A601BE016C5D7F4FF9
:1018D000C7010995AF960FB6F894DEBF0FBECDBF16
:1018E000DF91CF911F910F91FF90EF90DF90CF90FC
:1018F0000895FC01262F1382128248EE53E060E027
:1019000070E0448355836683778381E591E091831A
:10191000808324870895FC018485843039F090E029
:10192000982F88278D5F9B4F0C942D1F80E0089582
:10193000AF92BF92CF92DF92EF92FF920F931F93DD
:10194000CF93DF93EC015B016A018C85843009F051
:101950004EC033E0E32E34E0F32E00E010E0C70188
:101960000E942D1F811102C00C8709C08B7F883116
:10197000D9F30F5F1F4FF3940430110581F78C8565
:101980008430A9F120911001309111012F5F3F4F58
:101990002115310511F420E034E03093110120933A
:1019A0001001409110015091110120E061E00E946E
:1019B000EA1CB5016E5F7F4FA6018C850E943E1D1B
:1019C000811103C084E08C8712C0CE010E948B0C71
:1019D000873151F061E070E080E090E00E94910575
:1019E000CE010E948B0CECCF81E090E002C080E041
:1019F00090E0DF91CF911F910F91FF90EF90DF90DA
:101A0000CF90BF90AF900895CF92DF92EF92FF9268
:101A1000CF93DF93EC018C85843081F10E94741D9B
:101A20000E9462056B017C01CE010E948B0C882311
:101A300059F00E9462056C197D098E099F09683E64
:101A400073408105910598F0CE010E948B0C88238C
:101A500019F08C850E94DC1CEC85F0E0EE0FFF1F76
:101A6000EF5AFC4F1182108284E08C8707C061E03E
:101A700070E080E090E00E949105D6CFDF91CF9199
:101A8000FF90EF90DF90CF900895CF93DF93EC011C
:101A90008C858430D1F0CE010E948B0C8431A9F06A
:101AA000882399F0883189F08C3169F4E881F981D3
:101AB0000480F581E02DCE01099521E0892B09F400
:101AC00020E0822F03C081E001C080E0DF91CF9150
:101AD00008950F9300E020E040E060E083E493E0AD
:101AE0000E942E080F91089544E050E0BC0181E06F
:101AF00090E00C94FE1E44E050E0BC0185E090E0D4
:101B00000C94FE1E44E050E0BC018FE090E00C9489
:101B1000FE1E8F929F92AF92BF92CF92DF92EF9272
:101B2000FF920F931F93CF93DF9300D0CDB7DEB713
:101B30004C016A01590189E793E069837A830E9425
:101B4000C01E46E050E069817A8189E090E00E9401
:101B5000FE1EC60102960E94820DC80102960E94D6
:101B6000740DC70102960E947B0DF50142815381DD
:101B700064817581F40142835383648375830F907C
:101B80000F90DF91CF911F910F91FF90EF90DF9019
:101B9000CF90BF90AF909F908F9008956F927F925B
:101BA0008F929F92AF92BF92CF92DF92EF92FF926D
:101BB0000F931F93CF93DF93CDB7DEB76E970FB61A
:101BC000F894DEBF0FBECDBF6C015B017A01490105
:101BD000380100E02FEF4FEF6FEFCE0149960E94E2
:101BE0002E082BE431E03A8329838B8D9C8DAD8DBB
:101BF000BE8D8B839C83AD83BE8338872F83F30197
:101C000082819381A481B58189879A87AB87BC87BC
:101C10003E872D87F40182819381A481B5818F87CE
:101C2000988BA98BBA8B3C8B2B8BF701428153810C
:101C3000648175814D8B5E8B6F8B788FCE010196A1
:101C40007C018E01095F1F4F9E01235F3F4FAE0154
:101C50004D5E5F4FB501C6010E94890D6E960FB6AD
:101C6000F894DEBF0FBECDBFDF91CF911F910F91D2
:101C7000FF90EF90DF90CF90BF90AF909F908F90AC
:101C80007F906F900895CF92DF92EF92FF920F9323
:101C90001F93CF93DF93CDB7DEB768970FB6F89455
:101CA000DEBF0FBECDBF6B017901DA0112964D91F7
:101CB0005D916D917C9115974D8B5E8B6F8B788FBD
:101CC000ABE4B1E0BA83A98321E0288F0D891E8996
:101CD0002F89388D0B831C832D833E83B887AF8378
:101CE000F701028113812481358109871A872B87A7
:101CF0003C87BE87AD874F87588B698B7A8B8E0167
:101D00000F5F1F4F9E01295F3F4FAE01435F5F4F43
:101D1000B6010E94CE0D68960FB6F894DEBF0FBED6
:101D2000CDBFDF91CF911F910F91FF90EF90DF908A
:101D3000CF9008950F931F93CF93DF93CDB7DEB766
:101D400062970FB6F894DEBF0FBECDBFDB01FA017C
:101D500042815381648175814F87588B698B7A8B5F
:101D6000EBE4F1E0FA83E98321E02A8B0F851889FF
:101D700029893A890B831C832D833E83F887EF835F
:101D800049875A876B877C879E012F5F3F4FAE0143
:101D9000495F5F4FBD010E94430E62960FB6F894F3
:101DA000DEBF0FBECDBFDF91CF911F910F91089580
:101DB000CF93DF93EC010E942408BE016E5F7F4F3A
:101DC00044E050E08FE090E00E942F20CE01DF91B0
:101DD000CF9108952BE431E0FC0131832083FB0196
:101DE0004281538164817581FC0142835383648302
:101DF000758308950F9300E020E040E060E089E5FE
:101E000093E00E942E0889E493E00F910C9424083B
:101E1000CF93DF931F92CDB7DEB76983DC01ED91DD
:101E2000FC910280F381E02D41E050E0BE016F5F44
:101E30007F4F09950F90DF91CF910895EF92FF9218
:101E40000F931F93CF93DF93CDB7DEB72D970FB6C8
:101E5000F894DEBF0FBECDBF7C0100E010E0602F24
:101E6000CE0101960E94790CCE0101960E948B0C46
:101E7000811116C0F7014481558120E061E0802F77
:101E80000E94EA1C802F0E942A1DF70184819581FF
:101E9000F801EE0FFF1FEF5AFC4F9183808305C0BE
:101EA0000F5F1F4F04301105D1F62D960FB6F89431
:101EB000DEBF0FBECDBFDF91CF911F910F91FF907D
:101EC000EF900895FC01138212828DE691E09183D8
:101ED0008083758364830895BF92CF92DF92EF92DF
:101EE000FF920F931F93CF93DF93CDB7DEB72D975C
:101EF0000FB6F894DEBF0FBECDBF8C0141E5C42EF6
:101F000043E0D42EB12CE12CF12C6B2DCE010196A7
:101F10000E94790CD6012D913D916D01F8018481CB
:101F2000958128173907B1F4CE0101960E948B0CD8
:101F3000843169F0CE0101960E948B0C8C3151F4F2
:101F4000CE0101960E94CF0B892B99F003C0EE249D
:101F5000E394F12CB394F4E0BF12D7CFEF2871F4DF
:101F6000D801ED91FC910480F581E02DC80109951F
:101F700005C0CE0101960E94040DECCF2D960FB640
:101F8000F894DEBF0FBECDBFDF91CF911F910F91AF
:101F9000FF90EF90DF90CF90BF9008957F928F9247
:101FA0009F92AF92BF92CF92DF92EF92FF920F93E8
:101FB0001F93CF93DF93CDB7DEB72D970FB6F8946D
:101FC000DEBF0FBECDBF6C015B014A010E946C0FEA
:101FD00051E5E52E53E0F52E712C00E010E0672D61
:101FE000CE0101960E94790CF701219131917F0178
:101FF000F601848195812817390731F4CE010196C5
:102000000E948B0C8731C9F07394F4E07F12E7CF04
:10201000C8012D960FB6F894DEBF0FBECDBFDF917D
:10202000CF911F910F91FF90EF90DF90CF90BF90D5
:10203000AF909F908F907F900895A401B501CE013D
:1020400001960E94B50B080F191FDECFBF92CF92E9
:10205000DF92EF92FF920F931F93CF93DF93CDB751
:10206000DEB72D970FB6F894DEBF0FBECDBF8C0143
:102070006B01CB010E946C0F61E5E62E63E0F62E4A
:10208000B12C6B2DCE0101960E94790CF7012191A4
:1020900031917F01F601848195812817390761F418
:1020A000CE0101960E948B0C873179F0CE0101960A
:1020B0000E948B0C8C3149F0B394F4E0BF12E1CF55
:1020C00064E0C8010E94790C21C0CE0101960E94F3
:1020D000CF0B892B89F38B819C81F80193838283B9
:1020E0008D819E81AF81B88584839583A683B783D4
:1020F00049855A856B857C854087518762877387C0
:1021000081E591E0918380838D858487C8012D9638
:102110000FB6F894DEBF0FBECDBFDF91CF911F91F8
:102120000F91FF90EF90DF90CF90BF9008950F93A5
:1021300000E020E040E060E08FE593E00E942E08A0
:102140000F910895DC01ED91FC91008CF18DE02D53
:1021500009942BE431E0FC0131832083FB014189A8
:10216000528963897489FC01428353836483758334
:102170000895FC01858996890895FC01818D928DD1
:102180000895CF93DF931F92CDB7DEB76983DC014B
:10219000ED91FC910280F381E02D41E050E0BE0121
:1021A0006F5F7F4F09950F90DF91CF910895CF9387
:1021B000DF93EC01898D9A8D892B41F0E881F981BB
:1021C0000680F781E02DCE010995F4CFDF91CF9104
:1021D0000895CF93DF93EC018C85843061F00E94E9
:1021E000DC1CEC85F0E0EE0FFF1FEF5AFC4F118274
:1021F000108284E08C87DF91CF910895FC01108ECE
:10220000178A6E5F7F4F84850C944D1EFC01848578
:102210000C94721ECF93DF93EC019A018F89988DF5
:10222000AB01BC018C850E941F1E2F89388D280FA1
:10223000391F388F2F8BDF91CF9108950F931F9304
:10224000CF93DF931F92CDB7DEB78C01FC01818D58
:10225000928D892B59F041E050E0BE016F5F7F4FB6
:1022600084850E94CD1D181619061CF08FEF9FEF74
:1022700008C0F801818D928D0197928F818F89819D
:1022800090E00F90DF91CF911F910F910895CF9320
:10229000DF93EC01898D9A8D009719F48FEF9FEFF2
:1022A00010C04817590708F0AC018C850E94CD1D5D
:1022B000181619069CF7298D3A8D281B390B3A8F71
:1022C000298FDF91CF910895CF93DF931F92CDB7E0
:1022D000DEB7FC01218D328D232B49F0BE016F5FEB
:1022E0007F4F84850E94111E898190E002C08FEF8C
:1022F0009FEF0F90DF91CF9108950F931F93CF938E
:10230000DF93CDB7DEB728970FB6F894DEBF0FBEC8
:10231000CDBF8C01DC01ED91FC910284F385E02DB1
:102320000995F801648589E793E00E94991F892B3C
:1023300041F148E050E0BE016F5F7F4FD8011C962D
:102340008C910E94CD1D18161906ECF4BE016F5F2A
:102350007F4FC8010F960E943A088D8190E0982F18
:1023600088272E81820F911DF801968B858B8F8196
:1023700090E0982F88272885820F911D928F818F5A
:1023800002C080E090E028960FB6F894DEBF0FBE42
:10239000CDBFDF91CF911F910F910895CF92DF9222
:1023A000EF92FF920F931F93CF93DF93EC016B019A
:1023B0008C85843019F543E0E42E44E0F42E00E0EF
:1023C00010E0C7010E942D1F811102C00C8708C0B8
:1023D0008831E1F30F5F1F4FF3940430110589F743
:1023E0008C85843059F0DE86CD861A8E198E20E0D9
:1023F000A60162E00E94EA1C81E001C080E0DF915A
:10240000CF911F910F91FF90EF90DF90CF900895A3
:10241000FC011382128248EE53E060E070E04483D6
:1024200055836683778387E791E09183808384E097
:102430008487CF010F960C942408CF92DF92EF92FD
:10244000FF920F931F93CF93DF93CDB7DEB7AF9774
:102450000FB6F894DEBF0FBECDBF7C018B016A01C1
:10246000CE0101960E942408CE0109960E9408120E
:10247000CE018A960E94240869E473E0CE01849616
:102480000E94EA0EBE016C5D7F4FCE0101960E9454
:10249000B421AE01465D5F4FB801CE0101960E94A6
:1024A000192481309105C1F4D701ED91FC91008888
:1024B000F189E02D8BE491E09DA38CA30CA51DA5D3
:1024C0002EA53FA50EA31FA328A739A7A601BE01CD
:1024D0006C5D7F4FC7010995AF960FB6F894DEBFCC
:1024E0000FBECDBFDF91CF911F910F91FF90EF9065
:1024F000DF90CF9008950F9300E020E040E060E08F
:1025000085E693E00E942E080F910895FC017383E5
:10251000628381E090E0918380838EE091E09583F7
:10252000848386E090E0978386830895FC0171831D
:1025300060836130710521F42EE031E0358324831E
:102540000895FC01758364830895FC017783668395
:102550000895AF92BF92CF92DF92EF92FF920F93C6
:102560001F93CF93DF93FB015701DA018D919C916B
:102570000A97863F910508F064C0E7018881998138
:10258000059708F05EC080E090E0CC24C394D12C85
:10259000A081B181A80FB91FB601082E02C0660F35
:1025A000771F0A94E2F7EA01E880F9806E217F2123
:1025B000082E02C0759567950A94E2F7605D6C93EA
:1025C00001968A31910521F7D9018C91A081B181C1
:1025D000882311F081E301C080E35A968C93E801CF
:1025E0008881A081B181882341F081E35B968C933F
:1025F00080E090E061E070E002C080E3F7CFA0816E
:10260000B181A80FB91F9B01082E02C0220F331FF2
:102610000A94E2F7E5014881598124233523082EE5
:1026200002C0359527950A94E2F7205D5C962C93BD
:1026300001968430910519F70190F081E02D10A2E8
:1026400004C00190F081E02D1082DF91CF911F91A5
:102650000F91FF90EF90DF90CF90BF90AF900895D3
:10266000EF92FF920F931F93CF93DF93EC018B01B7
:102670007A0161E08A810E9458212C813D81F80114
:1026800080819181AC01249FC001259F900D349FD2
:10269000900D11240E94B70560E08A810E945821A4
:1026A0002C813D81F70180819181AC01249FC00183
:1026B000259F900D349F900D1124DF91CF911F9194
:1026C0000F91FF90EF900C94B705CF93DF9300D05C
:1026D00000D0CDB7DEB7FC0120813181213031053A
:1026E00071F44AE050E05A8349833C832B83AE0166
:1026F0004F5F5F4FBE016D5F7F4F0E9430130F90A1
:102700000F900F900F90DF91CF910895EF92FF926D
:102710000F931F93CF93DF9300D000D0CDB7DEB7D8
:102720007C01FC010081118101301105D9F41A836B
:1027300009831C830B83AE014F5F5F4FBE016D5F4A
:102740007F4F0E94301385E090E09A8389831C8339
:102750000B83AE014F5F5F4FBE016D5F7F4FC701BF
:102760000E9430130F900F900F900F90DF91CF9138
:102770001F910F91FF90EF900895EF92FF920F93AA
:102780001F93CF93DF9300D000D0CDB7DEB77C018D
:10279000FC010081118101301105E1F485E090E038
:1027A0009A8389831C830B83AE014F5F5F4FBE0109
:1027B0006D5F7F4FC7010E9430131A8309831C830A
:1027C0000B83AE014F5F5F4FBE016D5F7F4FC7014F
:1027D0000E9430130F900F900F900F90DF91CF91C8
:1027E0001F910F91FF90EF900895CF92DF92EF929B
:1027F000FF920F931F93CF93DF93EC01D62EC72E3A
:10280000E12CF12C8E819F81E816F906D4F4CE01DB
:102810000E9465130D2D1C2DF80181918F018823D5
:1028200061F0803331F08133B9F7CE010E94BD13DE
:10283000F3CFCE010E948613EFCFFFEFEF1AFF0A0E
:10284000E1CFDF91CF911F910F91FF90EF90DF903B
:10285000CF900895CF92DF92EF92FF920F931F9344
:10286000CF93DF93CDB7DEB728970FB6F894DEBFCE
:102870000FBECDBF6C017D836C834E8338872F8361
:10288000FC0180819181019729F581E290E00E940D
:1028900063089A83898381E08B83CE0107967C014C
:1028A0008E010D5F1F4F9E012A5F3F4FAE014C5FAF
:1028B0005F4FBE016F5F7F4FC6010E94A912698101
:1028C0007A81C6010E94F51389819A81009711F0DF
:1028D0000E94670828960FB6F894DEBF0FBECDBFE2
:1028E000DF91CF911F910F91FF90EF90DF90CF90EC
:1028F0000895CF92DF92EF92FF920F931F93CF93A1
:10290000DF93CDB7DEB728970FB6F894DEBF0FBEC2
:10291000CDBF6C017D836C834E8338872F83FC0190
:1029200080819181019721F581E290E00E94630806
:102930009A8389831B82CE0107967C018E010D5FED
:102940001F4F9E012A5F3F4FAE014C5F5F4FBE019C
:102950006F5F7F4FC6010E94A91269817A81C6010B
:102960000E94F51389819A81009711F00E946708EF
:1029700028960FB6F894DEBF0FBECDBFDF91CF9182
:102980001F910F91FF90EF90DF90CF900895CF931C
:10299000DF93EC010E940812CE014B960E9424089E
:1029A0001FA218A619A61AA681E08EAB8FAB8CE2E7
:1029B00091E09EA38DA3DF91CF910895FC0167ABB9
:1029C0000895FC0176A365A308955F926F927F92AC
:1029D0008F929F92AF92BF92CF92DF92EF92FF922F
:1029E0000F931F93CF93DF93EC018CE3C82ED12C70
:1029F000E12CF12CCB01BA01A70196010E9481279D
:102A00006BA7CA01B901A70196010E94812749015C
:102A10005A016CA78EA9682F772767FD7095872FBD
:102A2000972F620F731F841F951F28E1C22ED12C90
:102A3000E12CF12CA70196010E948127562E6DA74B
:102A4000C501B401A70196010E94812749015A01DD
:102A5000CA01B9016C5F7F4F8F4F9F4F27E030E075
:102A600040E050E00E9481276F5F6EA700E010E019
:102A7000980140E054E6652E712C60E9C62EDD24F5
:102A8000D394E42FF0E0EE54F84F7F0183E0E82286
:102A9000FF24E114F10489F4CF01B3010E946D27F2
:102AA000892B29F08EE691E0A0E0B0E00AC0CF01CA
:102AB000B6010E946D27892BA9F38DE691E0A0E075
:102AC000B0E0080F191F2A1F3B1FD901C801AA2710
:102AD000BB2788169906AA06BB0610F04F5FD1CF18
:102AE00049ABE114F10499F4CF0164E670E00E946F
:102AF0006D27892B29F08EE691E0A0E0B0E00BC0B5
:102B0000CF0160E971E00E946D27892BA1F38DE66A
:102B100091E0A0E0B0E0081B190B2A0B3B0B801AD8
:102B2000910AA20AB30ACF0164E670E00E946D2701
:102B30009C01CF0160E971E00E946D27E7ECF1E0B4
:102B4000A0E0A13059F4E114F10451F4211531054C
:102B500011F04DE106C00097E1F302C0408101C0D1
:102B60004CE150E060E070E084169506A606B706DA
:102B700040F0841A950AA60AB70AAF5F3196AC30C6
:102B800001F781E08A0F88AB83948FA68FA98823F1
:102B900049F0A350A73030F481E0850D68E10E9430
:102BA0004D279DA7DF91CF911F910F91FF90EF903F
:102BB000DF90CF90BF90AF909F908F907F906F905D
:102BC0005F900895CF92DF92EF92FF92CF93DF93C1
:102BD000EC016A017B014AA95BA96CA97DA9C41615
:102BE000D506E606F70641F0B701A6010E94E514F6
:102BF000CAAADBAAECAAFDAADF91CF91FF90EF90C1
:102C0000DF90CF9008950F9300E020E040E060E077
:102C10008BE693E00E942E080F910895EF92FF92A9
:102C20000F931F93CF93DF93CDB7DEB7E6970FB621
:102C3000F894DEBF0FBECDBF8C01CE0101967C01A2
:102C400080E3F70111928A95E9F783EE898386E0A4
:102C50008B838CEE8C8381E38D879EE49E878F87A8
:102C600084E3888B8BE491E09AAB89ABFB014281D2
:102C70005381648175814BAB5CAB6DAB7EAB4BE735
:102C800050E0BE016F5C7F4FC8010E94FE1040E320
:102C900050E0B701C8010E940A11C8010E94061144
:102CA00061E070E080E090E0E6960FB6F894DEBF59
:102CB0000FBECDBFDF91CF911F910F91FF90EF908D
:102CC0000895EF92FF920F931F93CF93DF93CDB7A9
:102CD000DEB7E0970FB6F894DEBF0FBECDBF8C0114
:102CE000BC01655E7F4F0E940E166CE271E080E0D1
:102CF00090E00E94910567E971E083E992E00E940B
:102D00000109E12CF12C4AE050E0B70183E992E09F
:102D10000E94250AC8010E947D11892BA9F140E378
:102D200050E0BE016F5F7F4FC8010E9447116AA546
:102D300089A50E948E217C016CA58BA50E948E2105
:102D4000A70160E070E0BA0155274427A0E0B0E099
:102D5000482B592B6A2B7B2B40585E476A4A734895
:102D6000F80141A352A363A374A30E946205F80172
:102D700067A370A781A792A765EB71E083E992E052
:102D80000E944C0981E00FC06CE271E080E090E0AD
:102D90000E949105FFEFEF1AFF0A8AE0E816F1049E
:102DA00009F0B1CF80E0E0960FB6F894DEBF0FBE19
:102DB000CDBFDF91CF911F910F91FF90EF900895BC
:102DC0000F931F93CF93DF93EC018B01BA010E9405
:102DD000CE11F80142815381648175814D8F5E8FE0
:102DE0006F8F78A3CE01DF91CF911F910F910C943B
:102DF0006116CF92DF92EF92FF920F931F93CF93C2
:102E0000DF93EC010E9462050FA118A529A53AA540
:102E1000601B710B820B930B28EE33E040E050E017
:102E20000E9481278DA19EA1A0E0B0E0281739075C
:102E30004A075B0718F0CE010E946116C9A0DAA00C
:102E4000EBA0FCA00E9462050FA118A529A53AA538
:102E5000601B710B820B930B28EE33E040E050E0D7
:102E60000E9481272C0D3D1D4E1D5F1DCA01B90119
:102E7000DF91CF911F910F91FF90EF90DF90CF9056
:102E80000895CF93DF93EC010E94F916AB01BC01CA
:102E9000CE010E94E2158DA5DF91CF910895CF93C9
:102EA000DF93EC010E94F916AB01BC01CE010E9438
:102EB000E2158CA5DF91CF910895EF92FF920F93C9
:102EC0001F93CF93DF937C01EB01209781F06F81FB
:102ED00078850E945D178C0169857A85C7010E94FB
:102EE0005D17801791070CF4C801019602C080E0BD
:102EF00090E0DF91CF911F910F91FF90EF90089597
:102F0000EF92FF920F931F93CF93DF938C01EB010E
:102F100069857A850E945D177C016F817885C8017B
:102F20000E945D179701281B390BC901DF91CF91D2
:102F30001F910F91FF90EF900895CF93DF93FB01C6
:102F4000C081D181AF81B88519968D919C911A97D6
:102F500098878F83808191811A969C938E9319977D
:102F6000B183A083DF91CF910895CF93DF93FB01CD
:102F7000C081D181A985BA8517968D919C911897AA
:102F80009A8789878081918118969C938E93179751
:102F9000B183A083DF91CF910895EF92FF920F93B9
:102FA0001F93CF93DF93EC018B01FB01E080F18055
:102FB000B7010E948017029791F4F701618572852D
:102FC000CE010E94801797FF06C0B701675F7F4F51
:102FD000CE010E949D17B801CE010E94B517F801DD
:102FE000E080F180B701CE010E9480170296C9F4FB
:102FF000F70167817085CE010E94801718161906A7
:1030000034F4B701695F7F4FCE010E94B517B80154
:10301000CE01DF91CF911F910F91FF90EF900C9413
:103020009D17DF91CF911F910F91FF90EF90089521
:10303000EF92FF920F931F93CF93DF937C018B014D
:10304000FB01C081D1818F819885892B19F48985F5
:103050009A850FC0BE01695F7F4FC7010E94181893
:1030600098878F83B801C7010E94CD17F80180812E
:103070009181DF91CF911F910F91FF90EF90089573
:10308000CF92DF92EF92FF920F931F93CF93DF9334
:1030900000D000D0CDB7DEB77C016B01FB01008111
:1030A00011810115110509F457C0F80180814817F5
:1030B00050F4B801695F7F4FC7010E944018F801C2
:1030C0009087878341C0841750F4B801675F7F4FB2
:1030D000C7010E944018F8019287818735C0F80126
:1030E000C780D084218532853C832B83C8010E9410
:1030F0006508F7012381215023830B811C81011571
:10310000110501F1F801278130852115310511F0F4
:103110008901F8CF1A830983BE016D5F7F4FC70114
:103120000E941818F80192878187E981FA81C78285
:10313000D086BE016F5F7F4FC7010E94CD17898186
:103140009A810CC0C6010AC0B601C7010E94CD1702
:10315000F6018081918102C080E090E00F900F9095
:103160000F900F90DF91CF911F910F91FF90EF90F3
:10317000DF90CF9008951F93CF93DF93EC01462FFC
:103180001B81BC010E9440189983888381E09B8148
:10319000191301C080E0DF91CF911F910895CB01F9
:1031A000DC01ED91FC91309759F02081421718F421
:1031B000CF010796F5CF241718F4CF010996F0CF69
:1031C0000895462FBC010C94CF18EF92FF920F93F5
:1031D0001F93CF93DF937C01EB018A01209769F065
:1031E0006F817885A801C7010E94E518CE01F8011A
:1031F00009950984DA85C02DF1CFDF91CF911F9118
:103200000F91FF90EF900895AB01FC0160817181F7
:103210000C94E518CF92DF92EF92FF920F931F93D9
:10322000CF93DF936C018B017A010115110509F42D
:103230006EC0F80167817085A701C6010E940A1956
:1032400087E090E00E946108EC0166EF71E00E9467
:10325000EC0A64E170E0CE010E94AF0AF8016081DF
:10326000CE010E94420B6AE3CE010E942F0BF801AF
:103270008181882311F061E301C060E3CE010E94E7
:103280002F0B6AE3CE010E942F0BF8016281CE0161
:103290000E94420B6AE3CE010E942F0BF801658168
:1032A000CE010E94420B6AE3CE010E942F0BF8016F
:1032B0006681CE010E94420B6AE3CE010E942F0B71
:1032C000F8016381CE010E94420B6AE3CE010E94A5
:1032D0002F0BF8016481CE010E94420B6EE4CE01F7
:1032E0000E942F0BBE01C7010E94CC08BE0183E9DA
:1032F00092E00E943A09209731F0CE010E947E0AA6
:10330000CE010E946508F801018512858ECFDF91FC
:10331000CF911F910F91FF90EF90DF90CF90089584
:103320000F931F93CF93DF93EC018B0188819981D9
:10333000892B51F068817981A801CE01DF91CF916D
:103340001F910F910C940A1963ED71E0C8010E945E
:103350004C09F0CFEF92FF920F931F93CF93DF931F
:103360007C01EB018A01209709F47EC04881D801D5
:10337000ED91FC9160817181CB01019691838083F5
:1033800085E993E00E94B1244A81D801ED91FC9136
:1033900060817181CB0101969183808385E993E0FF
:1033A0000E94B1244E8143704295440F407E8D812E
:1033B000482B440F898181114160D801ED91FC9126
:1033C00060817181CB0101969183808385E993E0CF
:1033D0000E94B1242B812295207F4E814C7346950B
:1033E0004695D801ED91FC9160817181CB010196E8
:1033F00091838083422B85E993E00E94B1244C8124
:103400004F73440F2B8122952170D801ED91FC91CF
:1034100060817181CB01019691838083422B85E984
:1034200093E00E94B12469EB71E083E992E00E948D
:10343000A70860EB71E083E992E00E94A708D80139
:10344000ED91FC91608171814AE050E083E992E066
:103450000E94680A6F817885A801C7010E94AA1995
:103460000984DA85C02D7FCFDF91CF911F910F9115
:10347000FF90EF9008950F931F93CF93DF9300D0A9
:1034800000D0CDB7DEB78C0181E090E09C838B83C8
:10349000CE0103969A838983F80160817181AE0120
:1034A0004F5F5F4FC8010E94AA19F801438160E095
:1034B00070E085E993E00E94B1240F900F900F9087
:1034C0000F90DF91CF911F910F910895EF92FF928E
:1034D0000F931F93CF93DF931F92CDB7DEB78C016D
:1034E0007B01DB01ED91FC91309701F58BE090E0E1
:1034F00049830E946108FC0149814083128611863C
:1035000010861782D70111969C938E931182ED91AC
:10351000FC918FEF8283F80183818F5F8383C801E1
:103520000E943B1AD7018D919C9116C0808148174B
:1035300020F4BF01695F7F4F05C0841730F4BF01DD
:10354000675F7F4FC8010E94661AB701C8010E94D9
:10355000CD17F701808191810F90DF91CF911F915D
:103560000F91FF90EF9008950F931F93CF93DF93E8
:103570001F92CDB7DEB78C01462FDC0112969C91CD
:10358000129713968C911397981748F08D919C91F0
:10359000892B39F0B801C8010E94661A11C080E079
:1035A00010C08BE090E069830E946108FC014981B2
:1035B00040831286118610861782D8018D939C93C2
:1035C00081E00F90DF91CF911F910F9108950F939C
:1035D0001F93CF93DF93EC018B01DB01ED91FC9105
:1035E000DA018D919C91309769F4FB01918380837E
:1035F0008B818F5F8B83CE010E943B1AD8018D9106
:103600009C9118C0DC019C918081981720F4BF0127
:10361000695F7F4F05C0891730F4BF01675F7F4F37
:10362000CE010E94E71AB801CE010E94CD17F80121
:1036300080819181DF91CF911F910F9108958F9299
:103640009F92AF92BF92CF92DF92EF92FF920F9331
:103650001F93CF93DF9300D0CDB7DEB75C0160E05E
:1036600070E085E993E00E94AE24882E01E010E02E
:10367000912C981409F492C08BE090E00E946108AC
:103680007C01FC0112861186108617829A83898339
:10369000B80185E993E00E94AE24F7018083E980B8
:1036A000FA80B8016F5F7F4F85E993E00E94AE24F6
:1036B000F7018283B8016E5F7F4F85E993E00E9436
:1036C000AE24E981FA81982F917080FF02C0918326
:1036D00001C01182282F2E7330E035952795E9819E
:1036E000FA812583807CC82ED12C26E0D694C794FD
:1036F0002A95E1F7B8016D5F7F4F85E993E00E945D
:10370000AE24982F9F70E981FA81990F990F9C2917
:103710009683807FE82EF12C34E0F694E7943A9576
:10372000E1F76801F5E0CF0ED11CB8016C5F7F4F67
:1037300085E993E00E94AE24982F9170E981FA8187
:103740009295907F9E2993838E77282F30E0359530
:1037500027952483AE014F5F5F4FB501C5010E94DD
:10376000E71A66EA71E083E992E00E94A7084AE05E
:1037700050E0692D83E992E00E944A0A6DE971E008
:1037800083E992E00E94A7084AE050E0B60183E98D
:1037900092E00E94680A939486016BCF6AE771E019
:1037A00083E992E00E9428090F900F90DF91CF915A
:1037B0001F910F91FF90EF90DF90CF90BF90AF904F
:1037C0009F908F900895FC01628313821182108272
:1037D0000C941F1B1F93CF93DF93142F0E94E118AB
:1037E000FC01C081D181209719F466ED71E016C00B
:1037F00066EE71E083E992E00E944C094AE050E0F5
:10380000688183E992E00E94510A113021F4198302
:1038100067EF71E003C0198264E072E083E992E02F
:10382000DF91CF911F910C944C098F929F92AF9290
:10383000BF92CF92EF92FF920F931F93CF93DF939C
:103840004C015B01142FF22ED501ED91FC916081AA
:10385000C4016623D1F00E94E118DC01CD91DC9116
:10386000209759F062E172E083E992E00E944C09EE
:103870001A83FD820E83EB82CC82F5016081718117
:103880006F5F7F4F71836083DFCFEF2B21F3DF9179
:10389000CF911F910F91FF90EF90CF90BF90AF907D
:1038A0009F908F900C943B1ADF92EF92FF920F93B0
:1038B0001F93CF93DF937C01EB018A01DD24DA941F
:1038C000209781F09A81F8018081981301C0DA82F3
:1038D0006F817885A801C7010E94541C0984DA858C
:1038E000C02DEECFDF91CF911F910F91FF90EF9000
:1038F000DF900895CF93DF93EC01AB01688179816C
:103900000E94541CCE01DF91CF910C943B1A0F936F
:1039100000E020E040E060E081E793E00E942E08B4
:103920000F91089590E0982F882744E050E0845F3D
:103930009B4F0C94FE1E282F30E02C5F3F4F922FA0
:103940008827860F971F0C942D1F62E070E00C945F
:103950009B1CFB01282F30E02C5F3F4F922F8827C4
:10396000642F8E0F9F1F0C949E1ECF93DF93C82F42
:10397000D62F472F64E070E00E94A91C4D2F65E010
:1039800070E08C2FDF91CF910C94A91C462F62E040
:1039900070E00C94A91CCF93DF93C82FD62F472F2C
:1039A00060E170E00E94A91C4D2F61E170E08C2F56
:1039B000DF91CF910C94A91CCF93C82F40E150E028
:1039C000682F89E793E00E94E6206FEF8C2FCF915C
:1039D0000C94C61CEF92FF921F93CF93DF9300D0FD
:1039E000CDB7DEB7182F7A018FEF860F853048F5F7
:1039F000812F2A8369830E94DC1C2A816981462FDA
:103A0000422B60E070E0812F0E94A91CE114F104B8
:103A100011F0B7010AC060917703709178036F5F6E
:103A20007F4F7093780360937703812F0E94B51CBA
:103A300041E050E0612F89E793E00E94E62081E0B9
:103A400001C080E00F900F90DF91CF911F91FF9008
:103A5000EF900895CF93C82F63E070E00E949B1C05
:103A6000833149F442E050E06C2F89E793E00E94F3
:103A7000E62081E001C080E0CF9108951F93CF93AD
:103A8000DF93182FFB01EA0180818F3F51F4818180
:103A90008F3F91F482818F3F79F483818F3F61F46E
:103AA0001EC0811109C08181811106C082818111EE
:103AB00003C08381882399F0209789F0BF01812F6B
:103AC0000E94921CBE01812F0E94CB1C44E050E05A
:103AD000612F89E793E00E94E62081E001C080E049
:103AE000DF91CF911F91089548E050E0682F89E75A
:103AF00093E00C94E620DF92EF92FF920F931F93D6
:103B0000CF93DF93D82E8B01EA01413088E058072C
:103B100010F0C0E0D8E06D2D89E793E00E94651FAA
:103B20007C0163E070E08D2D0E949B1C873111F0B9
:103B30008C3121F4EC16FD0670F302C0C0E0D0E039
:103B40009E01A8016D2D89E793E00E94242040E2A8
:103B500050E06D2D89E793E00E94E6208D2D0E94B4
:103B6000A51C84FD0DC063E070E08D2D0E949B1CA0
:103B70008111F4CF8D2D0E94DC1C80E090E005C007
:103B800060E18D2D0E94C61CCE01DF91CF911F9167
:103B90000F91FF90EF90DF900895DF92EF92FF92E8
:103BA0000F931F93CF93DF93D82E7B018A01682F49
:103BB00089E793E00E94991FEC01009799F463E074
:103BC00070E08D2D0E949B1C843111F1882301F13E
:103BD000C1E0D0E08C3111F4C0E0D0E0D195C195C6
:103BE000D10916C0081719070CF4E8011C161D06A8
:103BF0007CF400E09E01A7016D2D89E793E00E940F
:103C0000962040E450E06D2D89E793E00E94E62085
:103C1000CE01DF91CF911F910F91FF90EF90DF9038
:103C200008950F93AB0101E021E030E0682F89E7B0
:103C300093E00E94962081E090E00F910895BF925A
:103C4000CF92DF92EF92FF920F931F93CF93DF9368
:103C5000B82E7B016A01E901682F89E793E00E9491
:103C6000651F8C179D0730F46B2D89E793E00E9448
:103C7000651FEC018E019601A7016B2D89E793E08A
:103C80000E94B51FCE01DF91CF911F910F91FF9040
:103C9000EF90DF90CF90BF9008951F93CF93DF9365
:103CA000182FFB01EA018081811109C081818111F6
:103CB00006C08281811103C08381882369F0209727
:103CC00059F0BF01812F0E94921CBE01812F0E94DA
:103CD000CB1C81E090E002C080E090E0DF91CF91CA
:103CE0001F910895CF93C82F40E250E0682F89E7D5
:103CF00093E00E94E6208C2F0E94A51C84FD0CC03E
:103D00008C2F0E94A51C83FFF6CF68E18C2F0E94A8
:103D1000C61C80E090E006C060E18C2F0E94C61CAB
:103D200081E090E0CF9108958EBD0DB407FEFDCFE8
:103D30008EB508952A9808952A9A08951F93CF93CF
:103D4000DF9300D0CDB7DEB7182F6A8399830E9426
:103D50009A1E80EF0E94941E9981892F0E94941EC2
:103D6000812F0E94941E6A81862F0E94941E0E94B9
:103D70009C1E81E00F900F90DF91CF911F910895CD
:103D8000CF93DF93EC016CE271E080E090E00E9461
:103D900091050E949321229A60E880E090E00E94C1
:103DA0009E1E65E58BE190E00E949E1E65E58AE11E
:103DB00090E00E949E1E80E090E49983888380E0DA
:103DC00090E69987888780E098E49B838A8380E0E7
:103DD00098E69B878A8780E090E59D838C8380E0CE
:103DE00090E79D878C8780E098E59F838E8380E0B5
:103DF00098E79F878E87DF91CF910895CF92DF92CA
:103E0000EF92FF920F931F93CF93DF93EC017A0110
:103E10008B016C01C40ED51ECC15DD05A1F00E94EE
:103E20009A1E80EF0E94941E8D2F0E94941E8C2F4C
:103E30000E94941E2196F80181918F010E94941E88
:103E40000E949C1EE9CFC701DF91CF911F910F9176
:103E5000FF90EF90DF90CF9008951F93CF93DF9363
:103E60001F92CDB7DEB7182F99830E949A1E8FE05C
:103E70000E94941E9981892F0E94941E812F0E9476
:103E8000941E80E00E94941E89830E949C1E89815A
:103E90000F90DF91CF911F9108951F93CF93DF93E0
:103EA000182F60E270E00E949B1CC82FD0E061E2F6
:103EB00070E0812F0E949B1CDC2FCC279E01282BB9
:103EC000C901DF91CF911F910895FF920F931F9326
:103ED000CF93DF93F62EC0E0D0E08F2D0E944D1FD0
:103EE0008C01009721F08F2D0E944D1FEC01C0170F
:103EF000D10799F7CE01DF91CF911F910F91FF90DC
:103F000008951F93CF93DF93182F66E270E00E940D
:103F10009B1CC82FD0E067E270E0812F0E949B1CA1
:103F2000DC2FCC279E01282BC901DF91CF911F9157
:103F30000895FF920F931F93CF93DF93F62EC0E067
:103F4000D0E08F2D0E94811F8C01009721F08F2DD2
:103F50000E94811FEC01C017D10799F7CE01DF91B4
:103F6000CF911F910F91FF9008956F927F929F9232
:103F7000AF92BF92CF92DF92EF92FF920F931F9377
:103F8000CF93DF931F92CDB7DEB7D82E962E3A018E
:103F9000590164E270E0892D99830E949B1CE82EF0
:103FA000F12C65E270E0892D0E949B1CFE2CEE2412
:103FB000E82AE60CF71C970137706D2C9981792E51
:103FC000690C711C690C711CD301ED91FC91E20F1D
:103FD000F31FC901800F911F81309840A0F0C12CC0
:103FE00048E0D42EC21AD30AA601B501CF010E941F
:103FF000FE1EA8014C195D09B5016C0D7D1DF30174
:104000008081918103C0A801B501CF010E94FE1EED
:10401000E00EF11E4F2D64E270E0892D0E94A91C74
:104020004E2D65E270E0892D0F90DF91CF911F91A9
:104030000F91FF90EF90DF90CF90BF90AF909F9047
:104040007F906F900C94A91C0F931F9389019A0184
:1040500040E050E00E94B51F1F910F910895CF924C
:10406000DF92EF92FF920F931F93CF93DF93EC01B8
:104070007A018B016C01C40ED51ECC15DD05A9F0AB
:104080000E949A1E8FE00E94941E8D2F0E94941E03
:104090008C2F0E94941E219680E00E94941EF801AD
:1040A00081938F010E949C1EE8CFC701DF91CF91C1
:1040B0001F910F91FF90EF90DF90CF900895CF92D6
:1040C000DF92EF92FF920F931F93CF93DF936901DB
:1040D0005770EC01C60FD11DC60FD11D888599857B
:1040E000840F951F9A01200F311F2130384090F026
:1040F000E12C68E0F62EE41AF50AA701B6010E9449
:104100002F20A8014E195F09B6016E0D7F1D88850D
:10411000998502C0A801B601DF91CF911F910F913F
:10412000FF90EF90DF90CF900C942F208F929F9272
:10413000AF92BF92CF92DF92EF92FF920F931F93B5
:10414000CF93DF936C01962E5A017901802E68E29D
:1041500070E0892D0E949B1CC82FD0E069E270E0BE
:10416000892D0E949B1CDC2FCC27C82B8701950131
:10417000AE01692DC6010E945F2081101AC0CE0DCC
:10418000DF1D4D2F68E270E0892D0E94A91C4C2F85
:1041900069E270E0892DDF91CF911F910F91FF901F
:1041A000EF90DF90CF90BF90AF909F908F900C9446
:1041B000A91CDF91CF911F910F91FF90EF90DF909D
:1041C000CF90BF90AF909F908F900895CF93C62FC0
:1041D00061E070E08C2F0E94A91C61E070E08C2FE0
:1041E0000E949B1C8111F9CFCF910895833081F0FB
:1041F00028F4813099F08230A1F008958630A9F03A
:104200008730B9F08430D1F4809180008F7D03C075
:10421000809180008F7780938000089584B58F7798
:1042200002C084B58F7D84BD08958091B0008F77E2
:1042300003C08091B0008F7D8093B0000895CF932C
:10424000DF9390E0FC01EA52FE4F2491FC01E6511D
:10425000FE4F8491882349F190E0880F991FFC015B
:10426000E85FFD4FA591B49182509E4FFC01C5912E
:10427000D4919FB7611108C0F8948C912095822346
:104280008C93888182230AC0623051F4F8948C9117
:10429000322F309583238C938881822B888304C0AE
:1042A000F8948C91822B8C939FBFDF91CF910895CE
:1042B0000F931F93CF93DF931F92CDB7DEB7282FB5
:1042C00030E0F901EE53FE4F8491F901EA52FE4FBE
:1042D0001491F901E651FE4F04910023C9F088239F
:1042E00021F069830E94F6206981E02FF0E0EE0F53
:1042F000FF1FE250FE4FA591B4919FB7F8948C91A7
:10430000611103C01095812301C0812B8C939FBF45
:104310000F90DF91CF911F910F91089570E09B0155
:10432000382BC901089561E08AE00E94582161E0BC
:104330008AE00E941F218CB580618CBD8CB58064A1
:104340008CBD61E08DE00E941F2161E08BE00C9448
:104350001F210F9300E020E040E060E089E893E057
:104360000E942E080F910895FB01428153816481C0
:104370007581FC014283538364837583178216829F
:104380000895CF93FB0181918111FDCFFB0180E066
:1043900090E020E030E0CAE06191662309F124302A
:1043A000310564F56E3271F48F3F910509F034F5F3
:1043B000DA01A20FB31F12968C932F5F3F4F80E05C
:1043C00090E0EACFDC01CA9FC001CB9F900D112481
:1043D000772767FD709560537109860F971FDCCFB3
:1043E0008F3F910509F054F4243031053CF4FA0173
:1043F000E20FF31F828381E090E002C080E090E052
:10440000CF9108950F9300E020E040E060E08FE856
:1044100093E00E942E080F910895AF92BF92CF9221
:10442000DF92EF92FF920F931F93CF93DF9300D011
:104430001F92CDB7DEB76C017B010E946205F601C9
:10444000778366838601085F1F4FB6016A5F7F4FDF
:1044500042E050E0C8010E940A1181E090E09A8396
:10446000898342E050E0BE016F5F7F4FC8010E9428
:104470000A1180E091E09A83898342E050E0BE0116
:104480006F5F7F4FC8010E940A111A82198242E0B1
:1044900050E0BE016F5F7F4FC8010E940A1142E0E9
:1044A00050E0BE016F5F7F4FC8010E940A1142E0D9
:1044B00050E0BE016F5F7F4FC8010E940A11670183
:1044C000F6018081882311F1F7016F01819181113B
:1044D00015C05601AE18BF081A141B0494F4AB8221
:1044E00041E050E0BE016D5F7F4FC8010E940A119C
:1044F000A501B701C8010E940A1103C08E3229F735
:10450000E8CF7601FFEFEF1AFF0ADACF1B8241E016
:1045100050E0BE016D5F7F4FC8010E940A11E12C7F
:10452000FF24F394FA82E98242E050E0BE016F5F1B
:104530007F4FC8010E940A11FA82E98242E050E0EE
:10454000BE016F5F7F4FC8010E940A1181E090E0B9
:104550000F900F900F90DF91CF911F910F91FF90CF
:10456000EF90DF90CF90BF90AF9008954F925F9201
:104570006F927F928F929F92AF92BF92CF92DF9273
:10458000EF92FF920F931F93CF93DF93CDB7DEB7D8
:1045900063970FB6F894DEBF0FBECDBF7C015B0101
:1045A0006A010E9462052B013C018701085F1F4FD1
:1045B0004501A12CB12CC8010E947D1118161906C5
:1045C00094F00E9462056419750986099709861698
:1045D0009706A806B906D0F062E370E080E090E0AC
:1045E0000E949105E8CFF701428153816481758172
:1045F000818D928DA38DB48D481759076A077B076B
:1046000041F4858D968DC59721F406C08FEF9FEFFD
:10461000F9C08EEF9FEFF6C0C8010E94BD100C9745
:104620000CF4EEC04CE050E0BE016F5F7F4FC8015C
:104630000E9447118B819C819827892798279A8B04
:10464000898BF7014681578129813A8142175307A7
:1046500011F497FD06C0C8010E94D7108CEF9FEFA0
:10466000D1C08F709270892B31F0C8010E94D71091
:104670008BEF9FEFC7C0AF80B884BA24AB24BA24B5
:10468000A114B10419F0E12CF12C23C0C8010E943F
:10469000D7108AEF9FEFB6C041E050E0BE01635FE4
:1046A0007F4FC8010E9447118D8581111BC08D85E8
:1046B0008111F2CFC8010E941E11C8010E941E1173
:1046C000C8010E941E11C8010E941E11FFEFEF1ABF
:1046D000FF0A8D819E81982789279827E816F90679
:1046E000D8F20AC08D859FEF980F9D878823F9F235
:1046F000C8010E941E11F6CFE12CF12C41E050E0E0
:10470000BE016D5E7F4FC8010E9447118B89982FB3
:10471000907C61F4882371F08B899FEF980F9B8BBD
:10472000882341F0C8010E941E11F6CFC8010E94E3
:104730001E111B8A8B898111E1CF42E050E0BE013E
:10474000615F7F4FC8010E94471142E050E0BE0107
:10475000635F7F4FC8010E944711C8010E941E116C
:10476000C8010E941E11C8010E941E11C8010E94AA
:104770001E1142E050E0BE016F5E7F4FC8010E94F3
:1047800047118F8598898115914029F48D859E85E3
:104790008115914019F0812C912C16C089899A8934
:1047A0008115944031F0C8010E94D71087EF9FEF28
:1047B00029C0B6016E5F7F4F44E050E0C8010E94FF
:1047C000471181E090E01EC089899A89982789273E
:1047D00098278816990638F4C8010E941E112FEFF9
:1047E000821A920AF1CF8FEFE81AF80AEA14FB0452
:1047F00009F084CFC8010E94D71086EF9FEF02C056
:104800008DEF9FEF63960FB6F894DEBF0FBECDBF5E
:10481000DF91CF911F910F91FF90EF90DF90CF909C
:10482000BF90AF909F908F907F906F905F904F90D0
:1048300008958F929F92AF92BF92CF92DF92EF92A4
:10484000FF920F931F93CF93DF9300D000D000D03F
:10485000CDB7DEB78C015B016A010E94C1214C011A
:10486000009709F05FC0F80142815381648175812E
:104870008091910390919203A0919303B09194033E
:10488000481759076A077B0709F450C00E94620560
:104890007801F8E0EF0EF11C6F7077277C5FC7019D
:1048A0000E94CE11813009F045C08BE491E09A83DB
:1048B0008983F80182819381A481B5818B839C8354
:1048C000AD83BE8345E350E0BE016F5F7F4FC701FC
:1048D0000E94FE10892B19F4812C912C1FC0B50168
:1048E000C8010E940D22892BB9F3C7010E9406114D
:1048F000892B91F333E0A32EB12CA60168E873E174
:10490000C8010E94B6224C01F1E0AF1AB108A1140F
:10491000B10421F08F3F2FEF920779F3C7010E9476
:10492000E91008C088248394912C04C09EEF892E3E
:1049300099249A94C40126960FB6F894DEBF0FBE50
:10494000CDBFDF91CF911F910F91FF90EF90DF903E
:10495000CF90BF90AF909F908F900895CB010C9413
:104960002727CB01642F0C942F27CF93DF9382301E
:10497000910510F482E090E0E0919803F0919903A2
:1049800020E030E0A0E0B0E0309739F14081518183
:1049900048175907B8F04817590771F48281938175
:1049A000109729F013969C938E9312972CC0909396
:1049B00099038093980327C02115310531F04217E0
:1049C000530718F0A901DB0101C0EF019A01BD01F5
:1049D000DF010280F381E02DD7CF21153105F9F0F9
:1049E000281B390B2430310580F48A819B816115A5
:1049F000710521F0FB019383828304C09093990396
:104A000080939803FE01329644C0FE01E20FF31F2B
:104A10008193919322503109398328833AC02091A0
:104A2000960330919703232B41F42091020130919A
:104A30000301309397032093960320910001309156
:104A400001012115310541F42DB73EB74091040114
:104A500050910501241B350BE0919603F0919703CB
:104A6000E217F307A0F42E1B3F0B2817390778F045
:104A7000AC014E5F5F4F2417350748F04E0F5F1FA4
:104A800050939703409396038193919302C0E0E083
:104A9000F0E0CF01DF91CF910895CF93DF9300979E
:104AA00009F487C0FC01329713821282C0919803E7
:104AB000D0919903209781F420813181280F391FEB
:104AC00080919603909197038217930779F5F0935D
:104AD0009703E09396036DC0DE0120E030E0AE174F
:104AE000BF0750F412964D915C9113979D014115AB
:104AF000510509F1DA01F3CFB383A28340815181DB
:104B0000840F951F8A179B0771F48D919C911197C3
:104B1000840F951F02969183808312968D919C91AC
:104B20001397938382832115310529F4F093990318
:104B3000E09398033EC0D9011396FC93EE9312972D
:104B40004D915D91A40FB51FEA17FB0779F48081A1
:104B50009181840F951F0296D90111969C938E9393
:104B60008281938113969C938E931297E0E0F0E0FC
:104B70008A819B81009719F0FE01EC01F9CFCE01EB
:104B8000029628813981820F931F209196033091DC
:104B900097032817390769F4309729F4109299037D
:104BA0001092980302C013821282D0939703C0938D
:104BB0009603DF91CF910895A0E0B0E0E2EEF5E238
:104BC0000C94A727EC01CB01209719F40E94B5247F
:104BD000B8C0FE01E60FF71F9E0122503109E2170F
:104BE000F30708F4ACC0D9010D911C911197061779
:104BF0001707B8F00530110508F49FC0A80144500C
:104C000051094617570708F498C002501109061BAE
:104C1000170B019311936D937C93CF010E944D2547
:104C20008CC05B01A01AB10A4E01800E911EA091AA
:104C30009803B0919903612C712C60E070E010979B
:104C400009F449C0A815B905C9F5ED90FC90119774
:104C5000670142E0C40ED11CCA14DB0478F147019D
:104C60008A189B08640142E0C40ED11C1296BC90C5
:104C700012971396AC91B5E0CB16D10440F0B282F6
:104C8000A38391828082D9018D939C9309C00E5F8A
:104C90001F4F0E0D1F1DF90111830083EB2DFA2FFD
:104CA0006115710531F0DB011396FC93EE931297B9
:104CB00044C0F0939903E09398033FC06D917C91B9
:104CC00011976616770608F43B01BD0112960D9008
:104CD000BC91A02DB4CF6091960370919703681595
:104CE0007905E9F468167906D0F4409100015091F5
:104CF00001014115510541F44DB75EB760910401C2
:104D000070910501461B570BE417F507C0F4F093AB
:104D10009703E0939603F901918380830EC00E946C
:104D2000B5247C01009759F0A801BE010E94C72656
:104D3000CE010E944D25C70104C0CE0102C080E013
:104D400090E0CDB7DEB7EEE00C94C327FC018827D6
:104D50009927E89421912032E9F3293010F02E3080
:104D6000C8F32B3241F02D3239F4689404C00E940C
:104D70001F27820F911D219120532A30C0F31EF46A
:104D8000909581959F4F0895F8940C94E027FB012E
:104D9000DC0102C001900D9241505040D8F70895B7
:104DA000FB01DC0101900D920020E1F70895FA016A
:104DB000A191B081009719F41097E1F0CD01DC01C9
:104DC000CD010D90002011F4C00113C0FB01219111
:104DD000222319F02015D9F7F3CFFB0121912015DB
:104DE00019F41E92119606C02223C1F70D900020DF
:104DF000A1F7D001FA01A193B0830895FB019F01AF
:104E0000E8944230C4F04532B4F44A3029F497FBB8
:104E10001EF4909581959F4F642F77270E94592704
:104E2000805D8A330CF0895D8193CB010097A1F7F7
:104E300016F45DE251931082C9010C943D277AE08B
:104E4000979F902D879F802D910D11240895F9999A
:104E5000FECF92BD81BDF89A992780B50895262F7F
:104E6000F999FECF1FBA92BD81BD20BD0FB6F8944F
:104E7000FA9AF99A0FBE01960895DC01FC01672F9A
:104E800071917723E1F7329704C07C916D93708321
:104E90006291AE17BF07C8F30895991B79E004C06B
:104EA000991F961708F0961B881F7A95C9F7809569
:104EB0000895AA1BBB1B51E107C0AA1FBB1FA61761
:104EC000B70710F0A61BB70B881F991F5A95A9F7B3
:104ED00080959095BC01CD01089597FB072E16F49F
:104EE000009407D077FD09D00E94592707FC05D010
:104EF0003EF4909581959F4F0895709561957F4FF1
:104F00000895A1E21A2EAA1BBB1BFD010DC0AA1F0A
:104F1000BB1FEE1FFF1FA217B307E407F50720F022
:104F2000A21BB30BE40BF50B661F771F881F991F9D
:104F30001A9469F760957095809590959B01AC01E6
:104F4000BD01CF0108952F923F924F925F926F92D1
:104F50007F928F929F92AF92BF92CF92DF92EF9209
:104F6000FF920F931F93CF93DF93CDB7DEB7CA1B8A
:104F7000DB0B0FB6F894DEBF0FBECDBF09942A88B5
:104F8000398848885F846E847D848C849B84AA845D
:104F9000B984C884DF80EE80FD800C811B81AA81EA
:104FA000B981CE0FD11D0FB6F894DEBF0FBECDBFB5
:104FB000ED010895EE0FFF1F0590F491E02D099487
:044FC000F894FFCF93
:104FC40000009A03200001000000DEADBEEFFEEDFC
:104FD40000043A005377697463683A20004E4F4BDB
:104FE400004E4F205355434820434F4D4D414E44AE
:104FF400204558495354000000000057066908FD35
:10500400052A060F064C0600000000EA070000000F
:1050140000800BB50BCF0BDA0BF80B960B980C1B1F
:105024000CF40B040D450DAD0B00000000080FCE71
:105034000F1E0F00000000C1100A11BD101E1164E4
:1050440011D710CE11E910FE101D1206117D114763
:1050540011A210A910B910547279696E6720746F87
:10506400207265616368204E5450207365727665C2
:10507400722E2E2E004E5450207365727665722067
:105084004F4B212E2E2E001F1C1F1E1F1E1F1F1EC6
:105094001F1E1F2D31004E6F6465204E4F54204655
:1050A4006F756E6421004E6F646520466F756E6483
:1050B400212049443A20005374617475732074723A
:1050C400756521005374617475732066616C736532
:1050D400210053657474696E672074696D6572206C
:0C50E4006F6E206E6F64652E2E2E000093
:00000001FF
